{
  "_format": "hh-sol-artifact-1",
  "contractName": "BulkMultiChain",
  "sourceName": "contracts/BulkMultiChain.sol",
  "abi": [
    {
      "inputs": [
        {
          "internalType": "address",
          "name": "_genericHandler",
          "type": "address"
        }
      ],
      "stateMutability": "nonpayable",
      "type": "constructor"
    },
    {
      "anonymous": false,
      "inputs": [
        {
          "indexed": true,
          "internalType": "address",
          "name": "owner",
          "type": "address"
        },
        {
          "indexed": true,
          "internalType": "address",
          "name": "spender",
          "type": "address"
        },
        {
          "indexed": false,
          "internalType": "uint256",
          "name": "value",
          "type": "uint256"
        }
      ],
      "name": "Approval",
      "type": "event"
    },
    {
      "anonymous": false,
      "inputs": [
        {
          "indexed": true,
          "internalType": "uint8",
          "name": "sourceChain",
          "type": "uint8"
        },
        {
          "indexed": true,
          "internalType": "uint8",
          "name": "destChain",
          "type": "uint8"
        },
        {
          "indexed": false,
          "internalType": "address",
          "name": "sourceAddress",
          "type": "address"
        }
      ],
      "name": "CrossTalkReceive",
      "type": "event"
    },
    {
      "anonymous": false,
      "inputs": [
        {
          "indexed": true,
          "internalType": "uint8",
          "name": "sourceChain",
          "type": "uint8"
        },
        {
          "indexed": true,
          "internalType": "uint8",
          "name": "destChain",
          "type": "uint8"
        },
        {
          "indexed": false,
          "internalType": "address",
          "name": "sourceAddress",
          "type": "address"
        },
        {
          "indexed": false,
          "internalType": "address",
          "name": "destinationAddress",
          "type": "address"
        },
        {
          "indexed": true,
          "internalType": "bytes4",
          "name": "_selector",
          "type": "bytes4"
        },
        {
          "indexed": false,
          "internalType": "bytes",
          "name": "_data",
          "type": "bytes"
        },
        {
          "indexed": false,
          "internalType": "bytes32",
          "name": "_hash",
          "type": "bytes32"
        }
      ],
      "name": "CrossTalkSend",
      "type": "event"
    },
    {
      "anonymous": false,
      "inputs": [
        {
          "indexed": true,
          "internalType": "uint8",
          "name": "ChainID",
          "type": "uint8"
        },
        {
          "indexed": true,
          "internalType": "address",
          "name": "linkedContract",
          "type": "address"
        }
      ],
      "name": "Linkevent",
      "type": "event"
    },
    {
      "anonymous": false,
      "inputs": [
        {
          "indexed": true,
          "internalType": "bytes32",
          "name": "role",
          "type": "bytes32"
        },
        {
          "indexed": true,
          "internalType": "bytes32",
          "name": "previousAdminRole",
          "type": "bytes32"
        },
        {
          "indexed": true,
          "internalType": "bytes32",
          "name": "newAdminRole",
          "type": "bytes32"
        }
      ],
      "name": "RoleAdminChanged",
      "type": "event"
    },
    {
      "anonymous": false,
      "inputs": [
        {
          "indexed": true,
          "internalType": "bytes32",
          "name": "role",
          "type": "bytes32"
        },
        {
          "indexed": true,
          "internalType": "address",
          "name": "account",
          "type": "address"
        },
        {
          "indexed": true,
          "internalType": "address",
          "name": "sender",
          "type": "address"
        }
      ],
      "name": "RoleGranted",
      "type": "event"
    },
    {
      "anonymous": false,
      "inputs": [
        {
          "indexed": true,
          "internalType": "bytes32",
          "name": "role",
          "type": "bytes32"
        },
        {
          "indexed": true,
          "internalType": "address",
          "name": "account",
          "type": "address"
        },
        {
          "indexed": true,
          "internalType": "address",
          "name": "sender",
          "type": "address"
        }
      ],
      "name": "RoleRevoked",
      "type": "event"
    },
    {
      "anonymous": false,
      "inputs": [
        {
          "indexed": true,
          "internalType": "address",
          "name": "from",
          "type": "address"
        },
        {
          "indexed": true,
          "internalType": "address",
          "name": "to",
          "type": "address"
        },
        {
          "indexed": false,
          "internalType": "uint256",
          "name": "value",
          "type": "uint256"
        }
      ],
      "name": "Transfer",
      "type": "event"
    },
    {
      "anonymous": false,
      "inputs": [
        {
          "indexed": true,
          "internalType": "uint8",
          "name": "ChainID",
          "type": "uint8"
        },
        {
          "indexed": true,
          "internalType": "address",
          "name": "linkedContract",
          "type": "address"
        }
      ],
      "name": "Unlinkevent",
      "type": "event"
    },
    {
      "inputs": [],
      "name": "DEFAULT_ADMIN_ROLE",
      "outputs": [
        {
          "internalType": "bytes32",
          "name": "",
          "type": "bytes32"
        }
      ],
      "stateMutability": "view",
      "type": "function"
    },
    {
      "inputs": [
        {
          "internalType": "uint8",
          "name": "_chainID",
          "type": "uint8"
        },
        {
          "internalType": "address",
          "name": "_linkedContract",
          "type": "address"
        }
      ],
      "name": "Link",
      "outputs": [],
      "stateMutability": "nonpayable",
      "type": "function"
    },
    {
      "inputs": [
        {
          "internalType": "address",
          "name": "_to",
          "type": "address"
        },
        {
          "internalType": "uint256",
          "name": "_amt",
          "type": "uint256"
        }
      ],
      "name": "ReciveCrossChain",
      "outputs": [],
      "stateMutability": "nonpayable",
      "type": "function"
    },
    {
      "inputs": [
        {
          "internalType": "uint8",
          "name": "_chainID",
          "type": "uint8"
        }
      ],
      "name": "Unlink",
      "outputs": [],
      "stateMutability": "nonpayable",
      "type": "function"
    },
    {
      "inputs": [
        {
          "internalType": "address",
          "name": "_feeToken",
          "type": "address"
        },
        {
          "internalType": "uint256",
          "name": "_value",
          "type": "uint256"
        }
      ],
      "name": "_approveFees",
      "outputs": [],
      "stateMutability": "nonpayable",
      "type": "function"
    },
    {
      "inputs": [
        {
          "internalType": "address",
          "name": "owner",
          "type": "address"
        },
        {
          "internalType": "address",
          "name": "spender",
          "type": "address"
        }
      ],
      "name": "allowance",
      "outputs": [
        {
          "internalType": "uint256",
          "name": "",
          "type": "uint256"
        }
      ],
      "stateMutability": "view",
      "type": "function"
    },
    {
      "inputs": [
        {
          "internalType": "address",
          "name": "spender",
          "type": "address"
        },
        {
          "internalType": "uint256",
          "name": "amount",
          "type": "uint256"
        }
      ],
      "name": "approve",
      "outputs": [
        {
          "internalType": "bool",
          "name": "",
          "type": "bool"
        }
      ],
      "stateMutability": "nonpayable",
      "type": "function"
    },
    {
      "inputs": [
        {
          "internalType": "address",
          "name": "account",
          "type": "address"
        }
      ],
      "name": "balanceOf",
      "outputs": [
        {
          "internalType": "uint256",
          "name": "",
          "type": "uint256"
        }
      ],
      "stateMutability": "view",
      "type": "function"
    },
    {
      "inputs": [
        {
          "components": [
            {
              "internalType": "address",
              "name": "_to",
              "type": "address"
            },
            {
              "internalType": "uint8",
              "name": "_chainID",
              "type": "uint8"
            },
            {
              "internalType": "uint256",
              "name": "_amt",
              "type": "uint256"
            }
          ],
          "internalType": "struct BulkMultiChain.BulkData[]",
          "name": "data",
          "type": "tuple[]"
        }
      ],
      "name": "bulkTransferCrossChain",
      "outputs": [
        {
          "internalType": "bool",
          "name": "",
          "type": "bool"
        }
      ],
      "stateMutability": "nonpayable",
      "type": "function"
    },
    {
      "inputs": [
        {
          "internalType": "address",
          "name": "_to",
          "type": "address"
        },
        {
          "internalType": "uint256",
          "name": "_amt",
          "type": "uint256"
        }
      ],
      "name": "burn",
      "outputs": [],
      "stateMutability": "nonpayable",
      "type": "function"
    },
    {
      "inputs": [],
      "name": "decimals",
      "outputs": [
        {
          "internalType": "uint8",
          "name": "",
          "type": "uint8"
        }
      ],
      "stateMutability": "view",
      "type": "function"
    },
    {
      "inputs": [
        {
          "internalType": "address",
          "name": "spender",
          "type": "address"
        },
        {
          "internalType": "uint256",
          "name": "subtractedValue",
          "type": "uint256"
        }
      ],
      "name": "decreaseAllowance",
      "outputs": [
        {
          "internalType": "bool",
          "name": "",
          "type": "bool"
        }
      ],
      "stateMutability": "nonpayable",
      "type": "function"
    },
    {
      "inputs": [],
      "name": "fetchCrossChainGas",
      "outputs": [
        {
          "internalType": "uint256",
          "name": "",
          "type": "uint256"
        }
      ],
      "stateMutability": "view",
      "type": "function"
    },
    {
      "inputs": [
        {
          "internalType": "bytes32",
          "name": "hash",
          "type": "bytes32"
        }
      ],
      "name": "fetchExecutes",
      "outputs": [
        {
          "components": [
            {
              "internalType": "uint8",
              "name": "chainID",
              "type": "uint8"
            },
            {
              "internalType": "uint64",
              "name": "nonce",
              "type": "uint64"
            }
          ],
          "internalType": "struct iRouterCrossTalk.ExecutesStruct",
          "name": "",
          "type": "tuple"
        }
      ],
      "stateMutability": "view",
      "type": "function"
    },
    {
      "inputs": [],
      "name": "fetchFeeToken",
      "outputs": [
        {
          "internalType": "address",
          "name": "",
          "type": "address"
        }
      ],
      "stateMutability": "view",
      "type": "function"
    },
    {
      "inputs": [],
      "name": "fetchHandler",
      "outputs": [
        {
          "internalType": "address",
          "name": "",
          "type": "address"
        }
      ],
      "stateMutability": "view",
      "type": "function"
    },
    {
      "inputs": [
        {
          "internalType": "uint8",
          "name": "_chainID",
          "type": "uint8"
        }
      ],
      "name": "fetchLink",
      "outputs": [
        {
          "internalType": "address",
          "name": "",
          "type": "address"
        }
      ],
      "stateMutability": "view",
      "type": "function"
    },
    {
      "inputs": [],
      "name": "fetchLinkSetter",
      "outputs": [
        {
          "internalType": "address",
          "name": "",
          "type": "address"
        }
      ],
      "stateMutability": "view",
      "type": "function"
    },
    {
      "inputs": [
        {
          "internalType": "bytes32",
          "name": "role",
          "type": "bytes32"
        }
      ],
      "name": "getRoleAdmin",
      "outputs": [
        {
          "internalType": "bytes32",
          "name": "",
          "type": "bytes32"
        }
      ],
      "stateMutability": "view",
      "type": "function"
    },
    {
      "inputs": [
        {
          "internalType": "bytes32",
          "name": "role",
          "type": "bytes32"
        },
        {
          "internalType": "address",
          "name": "account",
          "type": "address"
        }
      ],
      "name": "grantRole",
      "outputs": [],
      "stateMutability": "nonpayable",
      "type": "function"
    },
    {
      "inputs": [
        {
          "internalType": "bytes32",
          "name": "role",
          "type": "bytes32"
        },
        {
          "internalType": "address",
          "name": "account",
          "type": "address"
        }
      ],
      "name": "hasRole",
      "outputs": [
        {
          "internalType": "bool",
          "name": "",
          "type": "bool"
        }
      ],
      "stateMutability": "view",
      "type": "function"
    },
    {
      "inputs": [
        {
          "internalType": "address",
          "name": "spender",
          "type": "address"
        },
        {
          "internalType": "uint256",
          "name": "addedValue",
          "type": "uint256"
        }
      ],
      "name": "increaseAllowance",
      "outputs": [
        {
          "internalType": "bool",
          "name": "",
          "type": "bool"
        }
      ],
      "stateMutability": "nonpayable",
      "type": "function"
    },
    {
      "inputs": [
        {
          "internalType": "address",
          "name": "_to",
          "type": "address"
        },
        {
          "internalType": "uint256",
          "name": "_amt",
          "type": "uint256"
        }
      ],
      "name": "mint",
      "outputs": [],
      "stateMutability": "nonpayable",
      "type": "function"
    },
    {
      "inputs": [],
      "name": "name",
      "outputs": [
        {
          "internalType": "string",
          "name": "",
          "type": "string"
        }
      ],
      "stateMutability": "view",
      "type": "function"
    },
    {
      "inputs": [
        {
          "internalType": "bytes32",
          "name": "role",
          "type": "bytes32"
        },
        {
          "internalType": "address",
          "name": "account",
          "type": "address"
        }
      ],
      "name": "renounceRole",
      "outputs": [],
      "stateMutability": "nonpayable",
      "type": "function"
    },
    {
      "inputs": [
        {
          "internalType": "bytes32",
          "name": "role",
          "type": "bytes32"
        },
        {
          "internalType": "address",
          "name": "account",
          "type": "address"
        }
      ],
      "name": "revokeRole",
      "outputs": [],
      "stateMutability": "nonpayable",
      "type": "function"
    },
    {
      "inputs": [
        {
          "internalType": "uint8",
          "name": "srcChainID",
          "type": "uint8"
        },
        {
          "internalType": "address",
          "name": "srcAddress",
          "type": "address"
        },
        {
          "internalType": "bytes",
          "name": "data",
          "type": "bytes"
        }
      ],
      "name": "routerSync",
      "outputs": [
        {
          "internalType": "bool",
          "name": "",
          "type": "bool"
        },
        {
          "internalType": "bytes",
          "name": "",
          "type": "bytes"
        }
      ],
      "stateMutability": "nonpayable",
      "type": "function"
    },
    {
      "inputs": [
        {
          "internalType": "uint256",
          "name": "_gas",
          "type": "uint256"
        }
      ],
      "name": "setCrossChainGas",
      "outputs": [],
      "stateMutability": "nonpayable",
      "type": "function"
    },
    {
      "inputs": [
        {
          "internalType": "address",
          "name": "_feeToken",
          "type": "address"
        }
      ],
      "name": "setFeesToken",
      "outputs": [],
      "stateMutability": "nonpayable",
      "type": "function"
    },
    {
      "inputs": [
        {
          "internalType": "address",
          "name": "_addr",
          "type": "address"
        }
      ],
      "name": "setLinker",
      "outputs": [],
      "stateMutability": "nonpayable",
      "type": "function"
    },
    {
      "inputs": [
        {
          "internalType": "bytes4",
          "name": "interfaceId",
          "type": "bytes4"
        }
      ],
      "name": "supportsInterface",
      "outputs": [
        {
          "internalType": "bool",
          "name": "",
          "type": "bool"
        }
      ],
      "stateMutability": "view",
      "type": "function"
    },
    {
      "inputs": [],
      "name": "symbol",
      "outputs": [
        {
          "internalType": "string",
          "name": "",
          "type": "string"
        }
      ],
      "stateMutability": "view",
      "type": "function"
    },
    {
      "inputs": [],
      "name": "totalSupply",
      "outputs": [
        {
          "internalType": "uint256",
          "name": "",
          "type": "uint256"
        }
      ],
      "stateMutability": "view",
      "type": "function"
    },
    {
      "inputs": [
        {
          "internalType": "address",
          "name": "to",
          "type": "address"
        },
        {
          "internalType": "uint256",
          "name": "amount",
          "type": "uint256"
        }
      ],
      "name": "transfer",
      "outputs": [
        {
          "internalType": "bool",
          "name": "",
          "type": "bool"
        }
      ],
      "stateMutability": "nonpayable",
      "type": "function"
    },
    {
      "inputs": [
        {
          "internalType": "uint8",
          "name": "_chainID",
          "type": "uint8"
        },
        {
          "internalType": "address",
          "name": "_to",
          "type": "address"
        },
        {
          "internalType": "uint256",
          "name": "_amt",
          "type": "uint256"
        }
      ],
      "name": "transferCrossChain",
      "outputs": [
        {
          "internalType": "bool",
          "name": "",
          "type": "bool"
        }
      ],
      "stateMutability": "nonpayable",
      "type": "function"
    },
    {
      "inputs": [
        {
          "internalType": "address",
          "name": "from",
          "type": "address"
        },
        {
          "internalType": "address",
          "name": "to",
          "type": "address"
        },
        {
          "internalType": "uint256",
          "name": "amount",
          "type": "uint256"
        }
      ],
      "name": "transferFrom",
      "outputs": [
        {
          "internalType": "bool",
          "name": "",
          "type": "bool"
        }
      ],
      "stateMutability": "nonpayable",
      "type": "function"
    }
  ],
  "bytecode": "0x60806040523480156200001157600080fd5b50604051620047f9380380620047f9833981810160405281019062000037919062000378565b806040518060400160405280600e81526020017f506179726f6c6c20526f757465720000000000000000000000000000000000008152506040518060400160405280600581526020017f5059524c520000000000000000000000000000000000000000000000000000008152508160039080519060200190620000bc929190620002b1565b508060049080519060200190620000d5929190620002b1565b50505080600660006101000a81548173ffffffffffffffffffffffffffffffffffffffff021916908373ffffffffffffffffffffffffffffffffffffffff160217905550506200012f6000801b336200013660201b60201c565b5062000457565b6200014882826200014c60201b60201c565b5050565b6200015e82826200023e60201b60201c565b6200023a5760016005600084815260200190815260200160002060000160008373ffffffffffffffffffffffffffffffffffffffff1673ffffffffffffffffffffffffffffffffffffffff16815260200190815260200160002060006101000a81548160ff021916908315150217905550620001df620002a960201b60201c565b73ffffffffffffffffffffffffffffffffffffffff168173ffffffffffffffffffffffffffffffffffffffff16837f2f8788117e7eff1d82e926ec794901d17c78024a50270940304540a733656f0d60405160405180910390a45b5050565b60006005600084815260200190815260200160002060000160008373ffffffffffffffffffffffffffffffffffffffff1673ffffffffffffffffffffffffffffffffffffffff16815260200190815260200160002060009054906101000a900460ff16905092915050565b600033905090565b828054620002bf90620003d8565b90600052602060002090601f016020900481019282620002e357600085556200032f565b82601f10620002fe57805160ff19168380011785556200032f565b828001600101855582156200032f579182015b828111156200032e57825182559160200191906001019062000311565b5b5090506200033e919062000342565b5090565b5b808211156200035d57600081600090555060010162000343565b5090565b60008151905062000372816200043d565b92915050565b6000602082840312156200038b57600080fd5b60006200039b8482850162000361565b91505092915050565b6000620003b182620003b8565b9050919050565b600073ffffffffffffffffffffffffffffffffffffffff82169050919050565b60006002820490506001821680620003f157607f821691505b602082108114156200040857620004076200040e565b5b50919050565b7f4e487b7100000000000000000000000000000000000000000000000000000000600052602260045260246000fd5b6200044881620003a4565b81146200045457600080fd5b50565b61439280620004676000396000f3fe608060405234801561001057600080fd5b506004361061021c5760003560e01c80635eba365a116101255780639dc29fac116100ad578063c9adbf821161007c578063c9adbf82146106ae578063d547741f146106cc578063dd62ed3e146106e8578063f25e42c014610718578063fe9dc81a146107345761021c565b80639dc29fac14610614578063a217fddf14610630578063a457c2d71461064e578063a9059cbb1461067e5761021c565b806370a08231116100f457806370a082311461055e5780638bfb943d1461058e57806391d14854146105aa57806395d89b41146105da5780639d8cd8ba146105f85761021c565b80635eba365a146104d45780636972bc50146104f25780636daaaa4d146105105780636edb7a3e146105405761021c565b8063313ce567116101a857806340c10f191161017757806340c10f19146104205780634158cc271461043c57806343ef4ab41461046c5780634c16b973146104885780634cc31db4146104b85761021c565b8063313ce5671461039a57806336568abe146103b857806339509351146103d45780633e27323d146104045761021c565b8063095ea7b3116101ef578063095ea7b3146102d057806318160ddd1461030057806323b872dd1461031e578063248a9ca31461034e5780632f2ff15d1461037e5761021c565b806301ffc9a7146102215780630500387f1461025157806306d07c591461028157806306fdde03146102b2575b600080fd5b61023b60048036038101906102369190612ecd565b610750565b60405161024891906135e4565b60405180910390f35b61026b60048036038101906102669190612f9c565b6107ca565b6040516102789190613554565b60405180910390f35b61029b6004803603810190610296919061302a565b61080d565b6040516102a99291906135ff565b60405180910390f35b6102ba610a75565b6040516102c7919061369c565b60405180910390f35b6102ea60048036038101906102e59190612dc2565b610b07565b6040516102f791906135e4565b60405180910390f35b610308610b2a565b60405161031591906138f9565b60405180910390f35b61033860048036038101906103339190612d73565b610b34565b60405161034591906135e4565b60405180910390f35b61036860048036038101906103639190612e68565b610b63565b604051610375919061362f565b60405180910390f35b61039860048036038101906103939190612e91565b610b83565b005b6103a2610ba4565b6040516103af9190613914565b60405180910390f35b6103d260048036038101906103cd9190612e91565b610bad565b005b6103ee60048036038101906103e99190612dc2565b610c30565b6040516103fb91906135e4565b60405180910390f35b61041e60048036038101906104199190612fee565b610c67565b005b61043a60048036038101906104359190612dc2565b610e4b565b005b61045660048036038101906104519190612e68565b610e67565b60405161046391906138de565b60405180910390f35b61048660048036038101906104819190612f4a565b610ee3565b005b6104a2600480360381019061049d9190612dfe565b610efb565b6040516104af91906135e4565b60405180910390f35b6104d260048036038101906104cd9190612d0e565b61105e565b005b6104dc611078565b6040516104e991906138f9565b60405180910390f35b6104fa611082565b6040516105079190613554565b60405180910390f35b61052a60048036038101906105259190613091565b6110ac565b60405161053791906135e4565b60405180910390f35b6105486110cf565b6040516105559190613554565b60405180910390f35b61057860048036038101906105739190612d0e565b6110f9565b60405161058591906138f9565b60405180910390f35b6105a860048036038101906105a39190612dc2565b611141565b005b6105c460048036038101906105bf9190612e91565b6111c4565b6040516105d191906135e4565b60405180910390f35b6105e261122f565b6040516105ef919061369c565b60405180910390f35b610612600480360381019061060d9190612dc2565b6112c1565b005b61062e60048036038101906106299190612dc2565b6112cf565b005b6106386112eb565b604051610645919061362f565b60405180910390f35b61066860048036038101906106639190612dc2565b6112f2565b60405161067591906135e4565b60405180910390f35b61069860048036038101906106939190612dc2565b611369565b6040516106a591906135e4565b60405180910390f35b6106b661138c565b6040516106c39190613554565b60405180910390f35b6106e660048036038101906106e19190612e91565b6113b6565b005b61070260048036038101906106fd9190612d37565b6113d7565b60405161070f91906138f9565b60405180910390f35b610732600480360381019061072d9190612d0e565b61145e565b005b61074e60048036038101906107499190612f9c565b611478565b005b60007f7965db0b000000000000000000000000000000000000000000000000000000007bffffffffffffffffffffffffffffffffffffffffffffffffffffffff1916827bffffffffffffffffffffffffffffffffffffffffffffffffffffffff191614806107c357506107c2826115eb565b5b9050919050565b6000600960008360ff1660ff16815260200190815260200160002060009054906101000a900473ffffffffffffffffffffffffffffffffffffffff169050919050565b6000606084848073ffffffffffffffffffffffffffffffffffffffff16600960008460ff1660ff16815260200190815260200160002060009054906101000a900473ffffffffffffffffffffffffffffffffffffffff1673ffffffffffffffffffffffffffffffffffffffff16146108ba576040517f08c379a00000000000000000000000000000000000000000000000000000000081526004016108b19061375e565b60405180910390fd5b600660009054906101000a900473ffffffffffffffffffffffffffffffffffffffff1673ffffffffffffffffffffffffffffffffffffffff166108fb611655565b73ffffffffffffffffffffffffffffffffffffffff1614610951576040517f08c379a00000000000000000000000000000000000000000000000000000000081526004016109489061377e565b60405180910390fd5b6000600660009054906101000a900473ffffffffffffffffffffffffffffffffffffffff1673ffffffffffffffffffffffffffffffffffffffff1663b2c0f6406040518163ffffffff1660e01b815260040160206040518083038186803b1580156109bb57600080fd5b505afa1580156109cf573d6000803e3d6000fd5b505050506040513d601f19601f820116820180604052508101906109f39190612fc5565b905060008087806020019051810190610a0c9190612ef6565b91509150600080610a1d848461165d565b915091508460ff168c60ff167f4ef7c5e8df4a93d9634e83492a16efe750374905f02a02656e31369ff469ce3f8d604051610a589190613554565b60405180910390a381819850985050505050505050935093915050565b606060038054610a8490613c71565b80601f0160208091040260200160405190810160405280929190818152602001828054610ab090613c71565b8015610afd5780601f10610ad257610100808354040283529160200191610afd565b820191906000526020600020905b815481529060010190602001808311610ae057829003601f168201915b5050505050905090565b600080610b12611655565b9050610b1f81858561174d565b600191505092915050565b6000600254905090565b600080610b3f611655565b9050610b4c858285611918565b610b578585856119a4565b60019150509392505050565b600060056000838152602001908152602001600020600101549050919050565b610b8c82610b63565b610b9581611c25565b610b9f8383611c39565b505050565b60006012905090565b610bb5611655565b73ffffffffffffffffffffffffffffffffffffffff168173ffffffffffffffffffffffffffffffffffffffff1614610c22576040517f08c379a0000000000000000000000000000000000000000000000000000000008152600401610c199061389e565b60405180910390fd5b610c2c8282611d1a565b5050565b600080610c3b611655565b9050610c5c818585610c4d85896113d7565b610c579190613a82565b61174d565b600191505092915050565b600660009054906101000a900473ffffffffffffffffffffffffffffffffffffffff1673ffffffffffffffffffffffffffffffffffffffff16610ca8611655565b73ffffffffffffffffffffffffffffffffffffffff1614610cfe576040517f08c379a0000000000000000000000000000000000000000000000000000000008152600401610cf59061377e565b60405180910390fd5b81600073ffffffffffffffffffffffffffffffffffffffff16600960008360ff1660ff16815260200190815260200160002060009054906101000a900473ffffffffffffffffffffffffffffffffffffffff1673ffffffffffffffffffffffffffffffffffffffff1614610da7576040517f08c379a0000000000000000000000000000000000000000000000000000000008152600401610d9e906137de565b60405180910390fd5b81600960008560ff1660ff16815260200190815260200160002060006101000a81548173ffffffffffffffffffffffffffffffffffffffff021916908373ffffffffffffffffffffffffffffffffffffffff1602179055508173ffffffffffffffffffffffffffffffffffffffff168360ff167f53c7bf44dd47ad6fd3a8aac7c23d9ad4bddd7ec5889d7afef3450216586460a360405160405180910390a3505050565b6000801b610e5881611c25565b610e628383611dfc565b505050565b610e6f612a64565b600a60008381526020019081526020016000206040518060400160405290816000820160009054906101000a900460ff1660ff1660ff1681526020016000820160019054906101000a900467ffffffffffffffff1667ffffffffffffffff1667ffffffffffffffff16815250509050919050565b6000801b610ef081611c25565b81600b819055505050565b600080600090505b82518160ff16101561105457610f6033848360ff1681518110610f4f577f4e487b7100000000000000000000000000000000000000000000000000000000600052603260045260246000fd5b602002602001015160400151611f5c565b611040838260ff1681518110610f9f577f4e487b7100000000000000000000000000000000000000000000000000000000600052603260045260246000fd5b602002602001015160200151848360ff1681518110610fe7577f4e487b7100000000000000000000000000000000000000000000000000000000600052603260045260246000fd5b602002602001015160000151858460ff168151811061102f577f4e487b7100000000000000000000000000000000000000000000000000000000600052603260045260246000fd5b602002602001015160400151612133565b50808061104c90613cd4565b915050610f03565b5060019050919050565b6000801b61106b81611c25565b611074826121a6565b5050565b6000600b54905090565b6000600860009054906101000a900473ffffffffffffffffffffffffffffffffffffffff16905090565b60006110b83383611f5c565b6110c3848484612133565b50600190509392505050565b6000600660009054906101000a900473ffffffffffffffffffffffffffffffffffffffff16905090565b60008060008373ffffffffffffffffffffffffffffffffffffffff1673ffffffffffffffffffffffffffffffffffffffff168152602001908152602001600020549050919050565b3073ffffffffffffffffffffffffffffffffffffffff16611160611655565b73ffffffffffffffffffffffffffffffffffffffff16146111b6576040517f08c379a00000000000000000000000000000000000000000000000000000000081526004016111ad906136fe565b60405180910390fd5b6111c08282611dfc565b5050565b60006005600084815260200190815260200160002060000160008373ffffffffffffffffffffffffffffffffffffffff1673ffffffffffffffffffffffffffffffffffffffff16815260200190815260200160002060009054906101000a900460ff16905092915050565b60606004805461123e90613c71565b80601f016020809104026020016040519081016040528092919081815260200182805461126a90613c71565b80156112b75780601f1061128c576101008083540402835291602001916112b7565b820191906000526020600020905b81548152906001019060200180831161129a57829003601f168201915b5050505050905090565b6112cb82826121ea565b5050565b6000801b6112dc81611c25565b6112e68383611f5c565b505050565b6000801b81565b6000806112fd611655565b9050600061130b82866113d7565b905083811015611350576040517f08c379a00000000000000000000000000000000000000000000000000000000081526004016113479061387e565b60405180910390fd5b61135d828686840361174d565b60019250505092915050565b600080611374611655565b90506113818185856119a4565b600191505092915050565b6000600760009054906101000a900473ffffffffffffffffffffffffffffffffffffffff16905090565b6113bf82610b63565b6113c881611c25565b6113d28383611d1a565b505050565b6000600160008473ffffffffffffffffffffffffffffffffffffffff1673ffffffffffffffffffffffffffffffffffffffff16815260200190815260200160002060008373ffffffffffffffffffffffffffffffffffffffff1673ffffffffffffffffffffffffffffffffffffffff16815260200190815260200160002054905092915050565b6000801b61146b81611c25565b611474826122a4565b5050565b600660009054906101000a900473ffffffffffffffffffffffffffffffffffffffff1673ffffffffffffffffffffffffffffffffffffffff166114b9611655565b73ffffffffffffffffffffffffffffffffffffffff161461150f576040517f08c379a00000000000000000000000000000000000000000000000000000000081526004016115069061377e565b60405180910390fd5b600960008260ff1660ff16815260200190815260200160002060009054906101000a900473ffffffffffffffffffffffffffffffffffffffff1673ffffffffffffffffffffffffffffffffffffffff168160ff167f566e5d71d4547dca8d21d2527ec375bb6ad1052ea20ab35c3f310aba1d6bc66b60405160405180910390a36000600960008360ff1660ff16815260200190815260200160002060006101000a81548173ffffffffffffffffffffffffffffffffffffffff021916908373ffffffffffffffffffffffffffffffffffffffff16021790555050565b60007f01ffc9a7000000000000000000000000000000000000000000000000000000007bffffffffffffffffffffffffffffffffffffffffffffffffffffffff1916827bffffffffffffffffffffffffffffffffffffffffffffffffffffffff1916149050919050565b600033905090565b600060606000803073ffffffffffffffffffffffffffffffffffffffff16868660405160240161168d919061367a565b604051602081830303815290604052907bffffffffffffffffffffffffffffffffffffffffffffffffffffffff19166020820180517bffffffffffffffffffffffffffffffffffffffffffffffffffffffff83818316178352505050506040516116f79190613503565b6000604051808303816000865af19150503d8060008114611734576040519150601f19603f3d011682016040523d82523d6000602084013e611739565b606091505b509150915081819350935050509250929050565b600073ffffffffffffffffffffffffffffffffffffffff168373ffffffffffffffffffffffffffffffffffffffff1614156117bd576040517f08c379a00000000000000000000000000000000000000000000000000000000081526004016117b49061385e565b60405180910390fd5b600073ffffffffffffffffffffffffffffffffffffffff168273ffffffffffffffffffffffffffffffffffffffff16141561182d576040517f08c379a00000000000000000000000000000000000000000000000000000000081526004016118249061373e565b60405180910390fd5b80600160008573ffffffffffffffffffffffffffffffffffffffff1673ffffffffffffffffffffffffffffffffffffffff16815260200190815260200160002060008473ffffffffffffffffffffffffffffffffffffffff1673ffffffffffffffffffffffffffffffffffffffff168152602001908152602001600020819055508173ffffffffffffffffffffffffffffffffffffffff168373ffffffffffffffffffffffffffffffffffffffff167f8c5be1e5ebec7d5bd14f71427d1e84f3dd0314c0f7b2291e5b200ac8c7c3b9258360405161190b91906138f9565b60405180910390a3505050565b600061192484846113d7565b90507fffffffffffffffffffffffffffffffffffffffffffffffffffffffffffffffff811461199e5781811015611990576040517f08c379a00000000000000000000000000000000000000000000000000000000081526004016119879061379e565b60405180910390fd5b61199d848484840361174d565b5b50505050565b600073ffffffffffffffffffffffffffffffffffffffff168373ffffffffffffffffffffffffffffffffffffffff161415611a14576040517f08c379a0000000000000000000000000000000000000000000000000000000008152600401611a0b9061383e565b60405180910390fd5b600073ffffffffffffffffffffffffffffffffffffffff168273ffffffffffffffffffffffffffffffffffffffff161415611a84576040517f08c379a0000000000000000000000000000000000000000000000000000000008152600401611a7b906136de565b60405180910390fd5b611a8f8383836122e8565b60008060008573ffffffffffffffffffffffffffffffffffffffff1673ffffffffffffffffffffffffffffffffffffffff16815260200190815260200160002054905081811015611b15576040517f08c379a0000000000000000000000000000000000000000000000000000000008152600401611b0c906137be565b60405180910390fd5b8181036000808673ffffffffffffffffffffffffffffffffffffffff1673ffffffffffffffffffffffffffffffffffffffff16815260200190815260200160002081905550816000808573ffffffffffffffffffffffffffffffffffffffff1673ffffffffffffffffffffffffffffffffffffffff1681526020019081526020016000206000828254611ba89190613a82565b925050819055508273ffffffffffffffffffffffffffffffffffffffff168473ffffffffffffffffffffffffffffffffffffffff167fddf252ad1be2c89b69c2b068fc378daa952ba7f163c4a11628f55a4df523b3ef84604051611c0c91906138f9565b60405180910390a3611c1f8484846122ed565b50505050565b611c3681611c31611655565b6122f2565b50565b611c4382826111c4565b611d165760016005600084815260200190815260200160002060000160008373ffffffffffffffffffffffffffffffffffffffff1673ffffffffffffffffffffffffffffffffffffffff16815260200190815260200160002060006101000a81548160ff021916908315150217905550611cbb611655565b73ffffffffffffffffffffffffffffffffffffffff168173ffffffffffffffffffffffffffffffffffffffff16837f2f8788117e7eff1d82e926ec794901d17c78024a50270940304540a733656f0d60405160405180910390a45b5050565b611d2482826111c4565b15611df85760006005600084815260200190815260200160002060000160008373ffffffffffffffffffffffffffffffffffffffff1673ffffffffffffffffffffffffffffffffffffffff16815260200190815260200160002060006101000a81548160ff021916908315150217905550611d9d611655565b73ffffffffffffffffffffffffffffffffffffffff168173ffffffffffffffffffffffffffffffffffffffff16837ff6391f5c32d9c69d2a47ea670b442974b53935d1edc7fd64eb21e047a839171b60405160405180910390a45b5050565b600073ffffffffffffffffffffffffffffffffffffffff168273ffffffffffffffffffffffffffffffffffffffff161415611e6c576040517f08c379a0000000000000000000000000000000000000000000000000000000008152600401611e63906138be565b60405180910390fd5b611e78600083836122e8565b8060026000828254611e8a9190613a82565b92505081905550806000808473ffffffffffffffffffffffffffffffffffffffff1673ffffffffffffffffffffffffffffffffffffffff1681526020019081526020016000206000828254611edf9190613a82565b925050819055508173ffffffffffffffffffffffffffffffffffffffff16600073ffffffffffffffffffffffffffffffffffffffff167fddf252ad1be2c89b69c2b068fc378daa952ba7f163c4a11628f55a4df523b3ef83604051611f4491906138f9565b60405180910390a3611f58600083836122ed565b5050565b600073ffffffffffffffffffffffffffffffffffffffff168273ffffffffffffffffffffffffffffffffffffffff161415611fcc576040517f08c379a0000000000000000000000000000000000000000000000000000000008152600401611fc39061381e565b60405180910390fd5b611fd8826000836122e8565b60008060008473ffffffffffffffffffffffffffffffffffffffff1673ffffffffffffffffffffffffffffffffffffffff1681526020019081526020016000205490508181101561205e576040517f08c379a00000000000000000000000000000000000000000000000000000000081526004016120559061371e565b60405180910390fd5b8181036000808573ffffffffffffffffffffffffffffffffffffffff1673ffffffffffffffffffffffffffffffffffffffff1681526020019081526020016000208190555081600260008282546120b59190613b32565b92505081905550600073ffffffffffffffffffffffffffffffffffffffff168373ffffffffffffffffffffffffffffffffffffffff167fddf252ad1be2c89b69c2b068fc378daa952ba7f163c4a11628f55a4df523b3ef8460405161211a91906138f9565b60405180910390a361212e836000846122ed565b505050565b6000807f8bfb943dba9a83a1a9cac5f469250330ed6e5f0b169184f2aab095511327044690506000848460405160200161216e9291906135bb565b6040516020818303038152906040529050600080612194888585622dc6c0600b5461238f565b91509150819450505050509392505050565b80600860006101000a81548173ffffffffffffffffffffffffffffffffffffffff021916908373ffffffffffffffffffffffffffffffffffffffff16021790555050565b60008290508073ffffffffffffffffffffffffffffffffffffffff1663095ea7b3600660009054906101000a900473ffffffffffffffffffffffffffffffffffffffff16846040518363ffffffff1660e01b815260040161224c9291906135bb565b602060405180830381600087803b15801561226657600080fd5b505af115801561227a573d6000803e3d6000fd5b505050506040513d601f19601f8201168201806040525081019061229e9190612e3f565b50505050565b80600760006101000a81548173ffffffffffffffffffffffffffffffffffffffff021916908373ffffffffffffffffffffffffffffffffffffffff16021790555050565b505050565b505050565b6122fc82826111c4565b61238b576123218173ffffffffffffffffffffffffffffffffffffffff1660146125f4565b61232f8360001c60206125f4565b60405160200161234092919061351a565b6040516020818303038152906040526040517f08c379a0000000000000000000000000000000000000000000000000000000008152600401612382919061369c565b60405180910390fd5b5050565b60008086600073ffffffffffffffffffffffffffffffffffffffff16600960008360ff1660ff16815260200190815260200160002060009054906101000a900473ffffffffffffffffffffffffffffffffffffffff1673ffffffffffffffffffffffffffffffffffffffff16141561243c576040517f08c379a0000000000000000000000000000000000000000000000000000000008152600401612433906137fe565b60405180910390fd5b6000878760405160200161245192919061364a565b60405160208183030381529060405290506000600660009054906101000a900473ffffffffffffffffffffffffffffffffffffffff1673ffffffffffffffffffffffffffffffffffffffff16639f77b1fb8b848a8a600860009054906101000a900473ffffffffffffffffffffffffffffffffffffffff166040518663ffffffff1660e01b81526004016124e995949392919061392f565b602060405180830381600087803b15801561250357600080fd5b505af1158015612517573d6000803e3d6000fd5b505050506040513d601f19601f8201168201806040525081019061253b9190612f73565b905060006125498b836128ee565b905060405180604001604052808c60ff1681526020018367ffffffffffffffff16815250600a600083815260200190815260200160002060008201518160000160006101000a81548160ff021916908360ff16021790555060208201518160000160016101000a81548167ffffffffffffffff021916908367ffffffffffffffff1602179055509050506125df8b8b8b84612921565b60018195509550505050509550959350505050565b6060600060028360026126079190613ad8565b6126119190613a82565b67ffffffffffffffff811115612650577f4e487b7100000000000000000000000000000000000000000000000000000000600052604160045260246000fd5b6040519080825280601f01601f1916602001820160405280156126825781602001600182028036833780820191505090505b5090507f3000000000000000000000000000000000000000000000000000000000000000816000815181106126e0577f4e487b7100000000000000000000000000000000000000000000000000000000600052603260045260246000fd5b60200101907effffffffffffffffffffffffffffffffffffffffffffffffffffffffffffff1916908160001a9053507f78000000000000000000000000000000000000000000000000000000000000008160018151811061276a577f4e487b7100000000000000000000000000000000000000000000000000000000600052603260045260246000fd5b60200101907effffffffffffffffffffffffffffffffffffffffffffffffffffffffffffff1916908160001a905350600060018460026127aa9190613ad8565b6127b49190613a82565b90505b60018111156128a0577f3031323334353637383961626364656600000000000000000000000000000000600f86166010811061281c577f4e487b7100000000000000000000000000000000000000000000000000000000600052603260045260246000fd5b1a60f81b828281518110612859577f4e487b7100000000000000000000000000000000000000000000000000000000600052603260045260246000fd5b60200101907effffffffffffffffffffffffffffffffffffffffffffffffffffffffffffff1916908160001a905350600485901c94508061289990613c47565b90506127b7565b50600084146128e4576040517f08c379a00000000000000000000000000000000000000000000000000000000081526004016128db906136be565b60405180910390fd5b8091505092915050565b60008282604051602001612903929190613989565b60405160208183030381529060405280519060200120905092915050565b827bffffffffffffffffffffffffffffffffffffffffffffffffffffffff19168460ff16600660009054906101000a900473ffffffffffffffffffffffffffffffffffffffff1673ffffffffffffffffffffffffffffffffffffffff1663b2c0f6406040518163ffffffff1660e01b815260040160206040518083038186803b1580156129ad57600080fd5b505afa1580156129c1573d6000803e3d6000fd5b505050506040513d601f19601f820116820180604052508101906129e59190612fc5565b60ff167f5577eec09aa2850627ee68188b4ade468b8d0e82083954ecb4928e85e3db9ad530600960008a60ff1660ff16815260200190815260200160002060009054906101000a900473ffffffffffffffffffffffffffffffffffffffff168787604051612a56949392919061356f565b60405180910390a450505050565b6040518060400160405280600060ff168152602001600067ffffffffffffffff1681525090565b6000612a9e612a99846139d7565b6139b2565b90508083825260208201905082856060860282011115612abd57600080fd5b60005b85811015612aed5781612ad38882612c5a565b845260208401935060608301925050600181019050612ac0565b5050509392505050565b6000612b0a612b0584613a03565b6139b2565b905082815260208101848484011115612b2257600080fd5b612b2d848285613c05565b509392505050565b6000612b48612b4384613a03565b6139b2565b905082815260208101848484011115612b6057600080fd5b612b6b848285613c14565b509392505050565b600081359050612b82816142bb565b92915050565b600082601f830112612b9957600080fd5b8135612ba9848260208601612a8b565b91505092915050565b600081519050612bc1816142d2565b92915050565b600081359050612bd6816142e9565b92915050565b600081359050612beb81614300565b92915050565b600081519050612c0081614300565b92915050565b600082601f830112612c1757600080fd5b8135612c27848260208601612af7565b91505092915050565b600082601f830112612c4157600080fd5b8151612c51848260208601612b35565b91505092915050565b600060608284031215612c6c57600080fd5b612c7660606139b2565b90506000612c8684828501612b73565b6000830152506020612c9a84828501612ce4565b6020830152506040612cae84828501612cba565b60408301525092915050565b600081359050612cc981614317565b92915050565b600081519050612cde8161432e565b92915050565b600081359050612cf381614345565b92915050565b600081519050612d0881614345565b92915050565b600060208284031215612d2057600080fd5b6000612d2e84828501612b73565b91505092915050565b60008060408385031215612d4a57600080fd5b6000612d5885828601612b73565b9250506020612d6985828601612b73565b9150509250929050565b600080600060608486031215612d8857600080fd5b6000612d9686828701612b73565b9350506020612da786828701612b73565b9250506040612db886828701612cba565b9150509250925092565b60008060408385031215612dd557600080fd5b6000612de385828601612b73565b9250506020612df485828601612cba565b9150509250929050565b600060208284031215612e1057600080fd5b600082013567ffffffffffffffff811115612e2a57600080fd5b612e3684828501612b88565b91505092915050565b600060208284031215612e5157600080fd5b6000612e5f84828501612bb2565b91505092915050565b600060208284031215612e7a57600080fd5b6000612e8884828501612bc7565b91505092915050565b60008060408385031215612ea457600080fd5b6000612eb285828601612bc7565b9250506020612ec385828601612b73565b9150509250929050565b600060208284031215612edf57600080fd5b6000612eed84828501612bdc565b91505092915050565b60008060408385031215612f0957600080fd5b6000612f1785828601612bf1565b925050602083015167ffffffffffffffff811115612f3457600080fd5b612f4085828601612c30565b9150509250929050565b600060208284031215612f5c57600080fd5b6000612f6a84828501612cba565b91505092915050565b600060208284031215612f8557600080fd5b6000612f9384828501612ccf565b91505092915050565b600060208284031215612fae57600080fd5b6000612fbc84828501612ce4565b91505092915050565b600060208284031215612fd757600080fd5b6000612fe584828501612cf9565b91505092915050565b6000806040838503121561300157600080fd5b600061300f85828601612ce4565b925050602061302085828601612b73565b9150509250929050565b60008060006060848603121561303f57600080fd5b600061304d86828701612ce4565b935050602061305e86828701612b73565b925050604084013567ffffffffffffffff81111561307b57600080fd5b61308786828701612c06565b9150509250925092565b6000806000606084860312156130a657600080fd5b60006130b486828701612ce4565b93505060206130c586828701612b73565b92505060406130d686828701612cba565b9150509250925092565b6130e981613b66565b82525050565b6130f881613b78565b82525050565b61310781613b84565b82525050565b61311681613b8e565b82525050565b600061312782613a34565b6131318185613a4a565b9350613141818560208601613c14565b61314a81613d8b565b840191505092915050565b600061316082613a34565b61316a8185613a5b565b935061317a818560208601613c14565b80840191505092915050565b600061319182613a3f565b61319b8185613a66565b93506131ab818560208601613c14565b6131b481613d8b565b840191505092915050565b60006131ca82613a3f565b6131d48185613a77565b93506131e4818560208601613c14565b80840191505092915050565b60006131fd602083613a66565b915061320882613d9c565b602082019050919050565b6000613220602383613a66565b915061322b82613dc5565b604082019050919050565b6000613243603883613a66565b915061324e82613e14565b604082019050919050565b6000613266602283613a66565b915061327182613e63565b604082019050919050565b6000613289602283613a66565b915061329482613eb2565b604082019050919050565b60006132ac602b83613a66565b91506132b782613f01565b604082019050919050565b60006132cf603c83613a66565b91506132da82613f50565b604082019050919050565b60006132f2601d83613a66565b91506132fd82613f9f565b602082019050919050565b6000613315602683613a66565b915061332082613fc8565b604082019050919050565b6000613338603683613a66565b915061334382614017565b604082019050919050565b600061335b603d83613a66565b915061336682614066565b604082019050919050565b600061337e602183613a66565b9150613389826140b5565b604082019050919050565b60006133a1602583613a66565b91506133ac82614104565b604082019050919050565b60006133c4602483613a66565b91506133cf82614153565b604082019050919050565b60006133e7601783613a77565b91506133f2826141a2565b601782019050919050565b600061340a602583613a66565b9150613415826141cb565b604082019050919050565b600061342d601183613a77565b91506134388261421a565b601182019050919050565b6000613450602f83613a66565b915061345b82614243565b604082019050919050565b6000613473601f83613a66565b915061347e82614292565b602082019050919050565b60408201600082015161349f60008501826134e5565b5060208201516134b260208501826134c7565b50505050565b6134c181613bda565b82525050565b6134d081613be4565b82525050565b6134df81613be4565b82525050565b6134ee81613bf8565b82525050565b6134fd81613bf8565b82525050565b600061350f8284613155565b915081905092915050565b6000613525826133da565b915061353182856131bf565b915061353c82613420565b915061354882846131bf565b91508190509392505050565b600060208201905061356960008301846130e0565b92915050565b600060808201905061358460008301876130e0565b61359160208301866130e0565b81810360408301526135a3818561311c565b90506135b260608301846130fe565b95945050505050565b60006040820190506135d060008301856130e0565b6135dd60208301846134b8565b9392505050565b60006020820190506135f960008301846130ef565b92915050565b600060408201905061361460008301856130ef565b8181036020830152613626818461311c565b90509392505050565b600060208201905061364460008301846130fe565b92915050565b600060408201905061365f600083018561310d565b8181036020830152613671818461311c565b90509392505050565b60006020820190508181036000830152613694818461311c565b905092915050565b600060208201905081810360008301526136b68184613186565b905092915050565b600060208201905081810360008301526136d7816131f0565b9050919050565b600060208201905081810360008301526136f781613213565b9050919050565b6000602082019050818103600083015261371781613236565b9050919050565b6000602082019050818103600083015261373781613259565b9050919050565b600060208201905081810360008301526137578161327c565b9050919050565b600060208201905081810360008301526137778161329f565b9050919050565b60006020820190508181036000830152613797816132c2565b9050919050565b600060208201905081810360008301526137b7816132e5565b9050919050565b600060208201905081810360008301526137d781613308565b9050919050565b600060208201905081810360008301526137f78161332b565b9050919050565b600060208201905081810360008301526138178161334e565b9050919050565b6000602082019050818103600083015261383781613371565b9050919050565b6000602082019050818103600083015261385781613394565b9050919050565b60006020820190508181036000830152613877816133b7565b9050919050565b60006020820190508181036000830152613897816133fd565b9050919050565b600060208201905081810360008301526138b781613443565b9050919050565b600060208201905081810360008301526138d781613466565b9050919050565b60006040820190506138f36000830184613489565b92915050565b600060208201905061390e60008301846134b8565b92915050565b600060208201905061392960008301846134f4565b92915050565b600060a08201905061394460008301886134f4565b8181036020830152613956818761311c565b905061396560408301866134b8565b61397260608301856134b8565b61397f60808301846130e0565b9695505050505050565b600060408201905061399e60008301856134f4565b6139ab60208301846134d6565b9392505050565b60006139bc6139cd565b90506139c88282613ca3565b919050565b6000604051905090565b600067ffffffffffffffff8211156139f2576139f1613d5c565b5b602082029050602081019050919050565b600067ffffffffffffffff821115613a1e57613a1d613d5c565b5b613a2782613d8b565b9050602081019050919050565b600081519050919050565b600081519050919050565b600082825260208201905092915050565b600081905092915050565b600082825260208201905092915050565b600081905092915050565b6000613a8d82613bda565b9150613a9883613bda565b9250827fffffffffffffffffffffffffffffffffffffffffffffffffffffffffffffffff03821115613acd57613acc613cfe565b5b828201905092915050565b6000613ae382613bda565b9150613aee83613bda565b9250817fffffffffffffffffffffffffffffffffffffffffffffffffffffffffffffffff0483118215151615613b2757613b26613cfe565b5b828202905092915050565b6000613b3d82613bda565b9150613b4883613bda565b925082821015613b5b57613b5a613cfe565b5b828203905092915050565b6000613b7182613bba565b9050919050565b60008115159050919050565b6000819050919050565b60007fffffffff0000000000000000000000000000000000000000000000000000000082169050919050565b600073ffffffffffffffffffffffffffffffffffffffff82169050919050565b6000819050919050565b600067ffffffffffffffff82169050919050565b600060ff82169050919050565b82818337600083830152505050565b60005b83811015613c32578082015181840152602081019050613c17565b83811115613c41576000848401525b50505050565b6000613c5282613bda565b91506000821415613c6657613c65613cfe565b5b600182039050919050565b60006002820490506001821680613c8957607f821691505b60208210811415613c9d57613c9c613d2d565b5b50919050565b613cac82613d8b565b810181811067ffffffffffffffff82111715613ccb57613cca613d5c565b5b80604052505050565b6000613cdf82613bf8565b915060ff821415613cf357613cf2613cfe565b5b600182019050919050565b7f4e487b7100000000000000000000000000000000000000000000000000000000600052601160045260246000fd5b7f4e487b7100000000000000000000000000000000000000000000000000000000600052602260045260246000fd5b7f4e487b7100000000000000000000000000000000000000000000000000000000600052604160045260246000fd5b6000601f19601f8301169050919050565b7f537472696e67733a20686578206c656e67746820696e73756666696369656e74600082015250565b7f45524332303a207472616e7366657220746f20746865207a65726f206164647260008201527f6573730000000000000000000000000000000000000000000000000000000000602082015250565b7f526f7574657243726f737354616c6b203a2043616e206f6e6c7920626520636160008201527f6c6c65642062792043757272656e7420436f6e74726163740000000000000000602082015250565b7f45524332303a206275726e20616d6f756e7420657863656564732062616c616e60008201527f6365000000000000000000000000000000000000000000000000000000000000602082015250565b7f45524332303a20617070726f766520746f20746865207a65726f20616464726560008201527f7373000000000000000000000000000000000000000000000000000000000000602082015250565b7f526f7574657243726f737354616c6b203a20536f75726365204164647265737360008201527f204e6f74206c696e6b6564000000000000000000000000000000000000000000602082015250565b7f526f7574657243726f737354616c6b203a204f6e6c792047656e65726963486160008201527f6e646c65722063616e2063616c6c20746869732066756e6374696f6e00000000602082015250565b7f45524332303a20696e73756666696369656e7420616c6c6f77616e6365000000600082015250565b7f45524332303a207472616e7366657220616d6f756e742065786365656473206260008201527f616c616e63650000000000000000000000000000000000000000000000000000602082015250565b7f526f7574657243726f737354616c6b203a2043726f737320436861696e20436f60008201527f6e747261637420746f20436861696e2049442073657400000000000000000000602082015250565b7f526f7574657243726f737354616c6b203a2043726f737320436861696e20436f60008201527f6e747261637420746f20436861696e204944206973206e6f7420736574000000602082015250565b7f45524332303a206275726e2066726f6d20746865207a65726f2061646472657360008201527f7300000000000000000000000000000000000000000000000000000000000000602082015250565b7f45524332303a207472616e736665722066726f6d20746865207a65726f20616460008201527f6472657373000000000000000000000000000000000000000000000000000000602082015250565b7f45524332303a20617070726f76652066726f6d20746865207a65726f2061646460008201527f7265737300000000000000000000000000000000000000000000000000000000602082015250565b7f416363657373436f6e74726f6c3a206163636f756e7420000000000000000000600082015250565b7f45524332303a2064656372656173656420616c6c6f77616e63652062656c6f7760008201527f207a65726f000000000000000000000000000000000000000000000000000000602082015250565b7f206973206d697373696e6720726f6c6520000000000000000000000000000000600082015250565b7f416363657373436f6e74726f6c3a2063616e206f6e6c792072656e6f756e636560008201527f20726f6c657320666f722073656c660000000000000000000000000000000000602082015250565b7f45524332303a206d696e7420746f20746865207a65726f206164647265737300600082015250565b6142c481613b66565b81146142cf57600080fd5b50565b6142db81613b78565b81146142e657600080fd5b50565b6142f281613b84565b81146142fd57600080fd5b50565b61430981613b8e565b811461431457600080fd5b50565b61432081613bda565b811461432b57600080fd5b50565b61433781613be4565b811461434257600080fd5b50565b61434e81613bf8565b811461435957600080fd5b5056fea26469706673582212200ca0f2878476fb65eb22959b0ab57907c75aa020febb940e11f94cb970846ccf64736f6c63430008040033",
  "linkReferences": {},
  "deployedLinkReferences": {}
}